{
  "_format": "hh-sol-artifact-1",
  "contractName": "MyEpicNFT",
  "sourceName": "contracts/MyEpicNFT.sol",
  "abi": [
    {
      "inputs": [],
      "stateMutability": "nonpayable",
      "type": "constructor"
    },
    {
      "anonymous": false,
      "inputs": [
        {
          "indexed": true,
          "internalType": "address",
          "name": "owner",
          "type": "address"
        },
        {
          "indexed": true,
          "internalType": "address",
          "name": "approved",
          "type": "address"
        },
        {
          "indexed": true,
          "internalType": "uint256",
          "name": "tokenId",
          "type": "uint256"
        }
      ],
      "name": "Approval",
      "type": "event"
    },
    {
      "anonymous": false,
      "inputs": [
        {
          "indexed": true,
          "internalType": "address",
          "name": "owner",
          "type": "address"
        },
        {
          "indexed": true,
          "internalType": "address",
          "name": "operator",
          "type": "address"
        },
        {
          "indexed": false,
          "internalType": "bool",
          "name": "approved",
          "type": "bool"
        }
      ],
      "name": "ApprovalForAll",
      "type": "event"
    },
    {
      "anonymous": false,
      "inputs": [
        {
          "indexed": false,
          "internalType": "address",
          "name": "sender",
          "type": "address"
        },
        {
          "indexed": false,
          "internalType": "uint256",
          "name": "tokenId",
          "type": "uint256"
        }
      ],
      "name": "NewEpicNFTMinted",
      "type": "event"
    },
    {
      "anonymous": false,
      "inputs": [
        {
          "indexed": true,
          "internalType": "address",
          "name": "from",
          "type": "address"
        },
        {
          "indexed": true,
          "internalType": "address",
          "name": "to",
          "type": "address"
        },
        {
          "indexed": true,
          "internalType": "uint256",
          "name": "tokenId",
          "type": "uint256"
        }
      ],
      "name": "Transfer",
      "type": "event"
    },
    {
      "inputs": [
        {
          "internalType": "address",
          "name": "to",
          "type": "address"
        },
        {
          "internalType": "uint256",
          "name": "tokenId",
          "type": "uint256"
        }
      ],
      "name": "approve",
      "outputs": [],
      "stateMutability": "nonpayable",
      "type": "function"
    },
    {
      "inputs": [
        {
          "internalType": "address",
          "name": "owner",
          "type": "address"
        }
      ],
      "name": "balanceOf",
      "outputs": [
        {
          "internalType": "uint256",
          "name": "",
          "type": "uint256"
        }
      ],
      "stateMutability": "view",
      "type": "function"
    },
    {
      "inputs": [
        {
          "internalType": "uint256",
          "name": "tokenId",
          "type": "uint256"
        }
      ],
      "name": "getApproved",
      "outputs": [
        {
          "internalType": "address",
          "name": "",
          "type": "address"
        }
      ],
      "stateMutability": "view",
      "type": "function"
    },
    {
      "inputs": [],
      "name": "getCurrentCountId",
      "outputs": [
        {
          "internalType": "uint256",
          "name": "",
          "type": "uint256"
        }
      ],
      "stateMutability": "view",
      "type": "function"
    },
    {
      "inputs": [
        {
          "internalType": "address",
          "name": "owner",
          "type": "address"
        },
        {
          "internalType": "address",
          "name": "operator",
          "type": "address"
        }
      ],
      "name": "isApprovedForAll",
      "outputs": [
        {
          "internalType": "bool",
          "name": "",
          "type": "bool"
        }
      ],
      "stateMutability": "view",
      "type": "function"
    },
    {
      "inputs": [],
      "name": "makeAnEpicNFT",
      "outputs": [],
      "stateMutability": "payable",
      "type": "function"
    },
    {
      "inputs": [],
      "name": "name",
      "outputs": [
        {
          "internalType": "string",
          "name": "",
          "type": "string"
        }
      ],
      "stateMutability": "view",
      "type": "function"
    },
    {
      "inputs": [
        {
          "internalType": "uint256",
          "name": "tokenId",
          "type": "uint256"
        }
      ],
      "name": "ownerOf",
      "outputs": [
        {
          "internalType": "address",
          "name": "",
          "type": "address"
        }
      ],
      "stateMutability": "view",
      "type": "function"
    },
    {
      "inputs": [
        {
          "internalType": "uint256",
          "name": "tokenId",
          "type": "uint256"
        }
      ],
      "name": "pickRandomFirstWord",
      "outputs": [
        {
          "internalType": "string",
          "name": "",
          "type": "string"
        }
      ],
      "stateMutability": "view",
      "type": "function"
    },
    {
      "inputs": [
        {
          "internalType": "uint256",
          "name": "tokenId",
          "type": "uint256"
        }
      ],
      "name": "pickRandomSecondWord",
      "outputs": [
        {
          "internalType": "string",
          "name": "",
          "type": "string"
        }
      ],
      "stateMutability": "view",
      "type": "function"
    },
    {
      "inputs": [
        {
          "internalType": "uint256",
          "name": "tokenId",
          "type": "uint256"
        }
      ],
      "name": "pickRandomThirdWord",
      "outputs": [
        {
          "internalType": "string",
          "name": "",
          "type": "string"
        }
      ],
      "stateMutability": "view",
      "type": "function"
    },
    {
      "inputs": [
        {
          "internalType": "address",
          "name": "from",
          "type": "address"
        },
        {
          "internalType": "address",
          "name": "to",
          "type": "address"
        },
        {
          "internalType": "uint256",
          "name": "tokenId",
          "type": "uint256"
        }
      ],
      "name": "safeTransferFrom",
      "outputs": [],
      "stateMutability": "nonpayable",
      "type": "function"
    },
    {
      "inputs": [
        {
          "internalType": "address",
          "name": "from",
          "type": "address"
        },
        {
          "internalType": "address",
          "name": "to",
          "type": "address"
        },
        {
          "internalType": "uint256",
          "name": "tokenId",
          "type": "uint256"
        },
        {
          "internalType": "bytes",
          "name": "_data",
          "type": "bytes"
        }
      ],
      "name": "safeTransferFrom",
      "outputs": [],
      "stateMutability": "nonpayable",
      "type": "function"
    },
    {
      "inputs": [
        {
          "internalType": "address",
          "name": "operator",
          "type": "address"
        },
        {
          "internalType": "bool",
          "name": "approved",
          "type": "bool"
        }
      ],
      "name": "setApprovalForAll",
      "outputs": [],
      "stateMutability": "nonpayable",
      "type": "function"
    },
    {
      "inputs": [],
      "name": "setOwner",
      "outputs": [],
      "stateMutability": "nonpayable",
      "type": "function"
    },
    {
      "inputs": [
        {
          "internalType": "bytes4",
          "name": "interfaceId",
          "type": "bytes4"
        }
      ],
      "name": "supportsInterface",
      "outputs": [
        {
          "internalType": "bool",
          "name": "",
          "type": "bool"
        }
      ],
      "stateMutability": "view",
      "type": "function"
    },
    {
      "inputs": [],
      "name": "symbol",
      "outputs": [
        {
          "internalType": "string",
          "name": "",
          "type": "string"
        }
      ],
      "stateMutability": "view",
      "type": "function"
    },
    {
      "inputs": [
        {
          "internalType": "uint256",
          "name": "tokenId",
          "type": "uint256"
        }
      ],
      "name": "tokenURI",
      "outputs": [
        {
          "internalType": "string",
          "name": "",
          "type": "string"
        }
      ],
      "stateMutability": "view",
      "type": "function"
    },
    {
      "inputs": [
        {
          "internalType": "address",
          "name": "from",
          "type": "address"
        },
        {
          "internalType": "address",
          "name": "to",
          "type": "address"
        },
        {
          "internalType": "uint256",
          "name": "tokenId",
          "type": "uint256"
        }
      ],
      "name": "transferFrom",
      "outputs": [],
      "stateMutability": "nonpayable",
      "type": "function"
    },
    {
      "inputs": [],
      "name": "withdraw",
      "outputs": [],
      "stateMutability": "nonpayable",
      "type": "function"
    }
  ],
  "bytecode": "0x608060405260405180610160016040528061012f8152602001620049e061012f91396009908051906020019062000038929190620005cd565b506040518060a001604052806040518060400160405280600281526020017f492000000000000000000000000000000000000000000000000000000000000081525081526020016040518060400160405280600481526020017f596f75200000000000000000000000000000000000000000000000000000000081525081526020016040518060400160405280600381526020017f486520000000000000000000000000000000000000000000000000000000000081525081526020016040518060400160405280600481526020017f536865200000000000000000000000000000000000000000000000000000000081525081526020016040518060400160405280600581526020017f5468657920000000000000000000000000000000000000000000000000000000815250815250600a9060056200017b9291906200065e565b506040518060a001604052806040518060400160405280600581526020017f6c6f76652000000000000000000000000000000000000000000000000000000081525081526020016040518060400160405280600581526020017f6c696b652000000000000000000000000000000000000000000000000000000081525081526020016040518060400160405280600481526020017f656174200000000000000000000000000000000000000000000000000000000081525081526020016040518060400160405280600681526020017f6472696e6b20000000000000000000000000000000000000000000000000000081525081526020016040518060400160405280600581526020017f6861746520000000000000000000000000000000000000000000000000000000815250815250600b906005620002be9291906200065e565b506040518060a001604052806040518060400160405280600381526020017f446f67000000000000000000000000000000000000000000000000000000000081525081526020016040518060400160405280600381526020017f436174000000000000000000000000000000000000000000000000000000000081525081526020016040518060400160405280600781526020017f686f7420646f670000000000000000000000000000000000000000000000000081525081526020016040518060400160405280600581526020017f6b6974747900000000000000000000000000000000000000000000000000000081525081526020016040518060400160405280600781526020017f746170696f636100000000000000000000000000000000000000000000000000815250815250600c906005620004019291906200065e565b503480156200040f57600080fd5b506040518060400160405280600981526020017f5371756172654e465400000000000000000000000000000000000000000000008152506040518060400160405280600681526020017f5351554152450000000000000000000000000000000000000000000000000000815250816000908051906020019062000494929190620005cd565b508060019080519060200190620004ad929190620005cd565b505050620004fb6040518060400160405280601881526020017f54686973206973206d79204e465420636f6e74726163742e00000000000000008152506200050160201b620015031760201c565b6200087f565b620005a18160405160240162000518919062000793565b6040516020818303038152906040527f41304fac000000000000000000000000000000000000000000000000000000007bffffffffffffffffffffffffffffffffffffffffffffffffffffffff19166020820180517bffffffffffffffffffffffffffffffffffffffffffffffffffffffff8381831617835250505050620005a460201b60201c565b50565b60008151905060006a636f6e736f6c652e6c6f679050602083016000808483855afa5050505050565b828054620005db9062000809565b90600052602060002090601f016020900481019282620005ff57600085556200064b565b82601f106200061a57805160ff19168380011785556200064b565b828001600101855582156200064b579182015b828111156200064a5782518255916020019190600101906200062d565b5b5090506200065a9190620006c5565b5090565b828054828255906000526020600020908101928215620006b2579160200282015b82811115620006b1578251829080519060200190620006a0929190620005cd565b50916020019190600101906200067f565b5b509050620006c19190620006e4565b5090565b5b80821115620006e0576000816000905550600101620006c6565b5090565b5b80821115620007085760008181620006fe91906200070c565b50600101620006e5565b5090565b5080546200071a9062000809565b6000825580601f106200072e57506200074f565b601f0160209004906000526020600020908101906200074e9190620006c5565b5b50565b60006200075f82620007b7565b6200076b8185620007c2565b93506200077d818560208601620007d3565b62000788816200086e565b840191505092915050565b60006020820190508181036000830152620007af818462000752565b905092915050565b600081519050919050565b600082825260208201905092915050565b60005b83811015620007f3578082015181840152602081019050620007d6565b8381111562000803576000848401525b50505050565b600060028204905060018216806200082257607f821691505b602082108114156200083957620008386200083f565b5b50919050565b7f4e487b7100000000000000000000000000000000000000000000000000000000600052602260045260246000fd5b6000601f19601f8301169050919050565b614151806200088f6000396000f3fe60806040526004361061011f5760003560e01c806370a08231116100a0578063c575757a11610064578063c575757a146103e3578063c87b56dd14610420578063de9d132f1461045d578063e985e9c514610467578063fb6c6ee9146104a45761011f565b806370a08231146102ec57806395d89b4114610329578063a22cb46514610354578063b187301f1461037d578063b88d4fde146103ba5761011f565b80632de38d68116100e75780632de38d681461021b5780633ccfd60b1461025857806340caae061461026f57806342842e0e146102865780636352211e146102af5761011f565b806301ffc9a71461012457806306fdde0314610161578063081812fc1461018c578063095ea7b3146101c957806323b872dd146101f2575b600080fd5b34801561013057600080fd5b5061014b600480360381019061014691906129cb565b6104cf565b604051610158919061317b565b60405180910390f35b34801561016d57600080fd5b506101766105b1565b6040516101839190613196565b60405180910390f35b34801561019857600080fd5b506101b360048036038101906101ae9190612a1d565b610643565b6040516101c091906130eb565b60405180910390f35b3480156101d557600080fd5b506101f060048036038101906101eb919061298f565b6106c8565b005b3480156101fe57600080fd5b5061021960048036038101906102149190612889565b6107e0565b005b34801561022757600080fd5b50610242600480360381019061023d9190612a1d565b610840565b60405161024f9190613196565b60405180910390f35b34801561026457600080fd5b5061026d6109dc565b005b34801561027b57600080fd5b50610284610ad7565b005b34801561029257600080fd5b506102ad60048036038101906102a89190612889565b610bab565b005b3480156102bb57600080fd5b506102d660048036038101906102d19190612a1d565b610bcb565b6040516102e391906130eb565b60405180910390f35b3480156102f857600080fd5b50610313600480360381019061030e9190612824565b610c7d565b60405161032091906134a6565b60405180910390f35b34801561033557600080fd5b5061033e610d35565b60405161034b9190613196565b60405180910390f35b34801561036057600080fd5b5061037b60048036038101906103769190612953565b610dc7565b005b34801561038957600080fd5b506103a4600480360381019061039f9190612a1d565b610ddd565b6040516103b19190613196565b60405180910390f35b3480156103c657600080fd5b506103e160048036038101906103dc91906128d8565b610efb565b005b3480156103ef57600080fd5b5061040a60048036038101906104059190612a1d565b610f5d565b6040516104179190613196565b60405180910390f35b34801561042c57600080fd5b5061044760048036038101906104429190612a1d565b61107b565b6040516104549190613196565b60405180910390f35b6104656111cd565b005b34801561047357600080fd5b5061048e6004803603810190610489919061284d565b61145e565b60405161049b919061317b565b60405180910390f35b3480156104b057600080fd5b506104b96114f2565b6040516104c691906134a6565b60405180910390f35b60007f80ac58cd000000000000000000000000000000000000000000000000000000007bffffffffffffffffffffffffffffffffffffffffffffffffffffffff1916827bffffffffffffffffffffffffffffffffffffffffffffffffffffffff1916148061059a57507f5b5e139f000000000000000000000000000000000000000000000000000000007bffffffffffffffffffffffffffffffffffffffffffffffffffffffff1916827bffffffffffffffffffffffffffffffffffffffffffffffffffffffff1916145b806105aa57506105a98261159c565b5b9050919050565b6060600080546105c09061373a565b80601f01602080910402602001604051908101604052809291908181526020018280546105ec9061373a565b80156106395780601f1061060e57610100808354040283529160200191610639565b820191906000526020600020905b81548152906001019060200180831161061c57829003601f168201915b5050505050905090565b600061064e82611606565b61068d576040517f08c379a0000000000000000000000000000000000000000000000000000000008152600401610684906133c6565b60405180910390fd5b6004600083815260200190815260200160002060009054906101000a900473ffffffffffffffffffffffffffffffffffffffff169050919050565b60006106d382610bcb565b90508073ffffffffffffffffffffffffffffffffffffffff168373ffffffffffffffffffffffffffffffffffffffff161415610744576040517f08c379a000000000000000000000000000000000000000000000000000000000815260040161073b90613426565b60405180910390fd5b8073ffffffffffffffffffffffffffffffffffffffff16610763611672565b73ffffffffffffffffffffffffffffffffffffffff16148061079257506107918161078c611672565b61145e565b5b6107d1576040517f08c379a00000000000000000000000000000000000000000000000000000000081526004016107c890613306565b60405180910390fd5b6107db838361167a565b505050565b6107f16107eb611672565b82611733565b610830576040517f08c379a000000000000000000000000000000000000000000000000000000000815260040161082790613446565b60405180910390fd5b61083b838383611811565b505050565b6060600061087461085084611a78565b60405160200161086091906130a7565b604051602081830303815290604052611c25565b90506108b56040518060400160405280600b81526020017f72616e6420736565643a2000000000000000000000000000000000000000000081525082611c58565b600a80549050816108c691906137e6565b90506109076040518060400160405280601181526020017f72616e6420666972737420776f72643a2000000000000000000000000000000081525082611c58565b600a8181548110610941577f4e487b7100000000000000000000000000000000000000000000000000000000600052603260045260246000fd5b9060005260206000200180546109569061373a565b80601f01602080910402602001604051908101604052809291908181526020018280546109829061373a565b80156109cf5780601f106109a4576101008083540402835291602001916109cf565b820191906000526020600020905b8154815290600101906020018083116109b257829003601f168201915b5050505050915050919050565b600760009054906101000a900473ffffffffffffffffffffffffffffffffffffffff1673ffffffffffffffffffffffffffffffffffffffff163373ffffffffffffffffffffffffffffffffffffffff1614610a6c576040517f08c379a0000000000000000000000000000000000000000000000000000000008152600401610a6390613486565b60405180910390fd5b600760009054906101000a900473ffffffffffffffffffffffffffffffffffffffff1673ffffffffffffffffffffffffffffffffffffffff166108fc479081150290604051600060405180830381858888f19350505050158015610ad4573d6000803e3d6000fd5b50565b600073ffffffffffffffffffffffffffffffffffffffff16600760009054906101000a900473ffffffffffffffffffffffffffffffffffffffff1673ffffffffffffffffffffffffffffffffffffffff1614610b68576040517f08c379a0000000000000000000000000000000000000000000000000000000008152600401610b5f90613286565b60405180910390fd5b33600760006101000a81548173ffffffffffffffffffffffffffffffffffffffff021916908373ffffffffffffffffffffffffffffffffffffffff160217905550565b610bc683838360405180602001604052806000815250610efb565b505050565b6000806002600084815260200190815260200160002060009054906101000a900473ffffffffffffffffffffffffffffffffffffffff169050600073ffffffffffffffffffffffffffffffffffffffff168173ffffffffffffffffffffffffffffffffffffffff161415610c74576040517f08c379a0000000000000000000000000000000000000000000000000000000008152600401610c6b90613346565b60405180910390fd5b80915050919050565b60008073ffffffffffffffffffffffffffffffffffffffff168273ffffffffffffffffffffffffffffffffffffffff161415610cee576040517f08c379a0000000000000000000000000000000000000000000000000000000008152600401610ce590613326565b60405180910390fd5b600360008373ffffffffffffffffffffffffffffffffffffffff1673ffffffffffffffffffffffffffffffffffffffff168152602001908152602001600020549050919050565b606060018054610d449061373a565b80601f0160208091040260200160405190810160405280929190818152602001828054610d709061373a565b8015610dbd5780601f10610d9257610100808354040283529160200191610dbd565b820191906000526020600020905b815481529060010190602001808311610da057829003601f168201915b5050505050905090565b610dd9610dd2611672565b8383611cf4565b5050565b60606000610e11610ded84611a78565b604051602001610dfd9190613040565b604051602081830303815290604052611c25565b9050600b8054905081610e2491906137e6565b9050600b8181548110610e60577f4e487b7100000000000000000000000000000000000000000000000000000000600052603260045260246000fd5b906000526020600020018054610e759061373a565b80601f0160208091040260200160405190810160405280929190818152602001828054610ea19061373a565b8015610eee5780601f10610ec357610100808354040283529160200191610eee565b820191906000526020600020905b815481529060010190602001808311610ed157829003601f168201915b5050505050915050919050565b610f0c610f06611672565b83611733565b610f4b576040517f08c379a0000000000000000000000000000000000000000000000000000000008152600401610f4290613446565b60405180910390fd5b610f5784848484611e61565b50505050565b60606000610f91610f6d84611a78565b604051602001610f7d919061301e565b604051602081830303815290604052611c25565b9050600c8054905081610fa491906137e6565b9050600c8181548110610fe0577f4e487b7100000000000000000000000000000000000000000000000000000000600052603260045260246000fd5b906000526020600020018054610ff59061373a565b80601f01602080910402602001604051908101604052809291908181526020018280546110219061373a565b801561106e5780601f106110435761010080835404028352916020019161106e565b820191906000526020600020905b81548152906001019060200180831161105157829003601f168201915b5050505050915050919050565b606061108682611606565b6110c5576040517f08c379a00000000000000000000000000000000000000000000000000000000081526004016110bc906133a6565b60405180910390fd5b60006006600084815260200190815260200160002080546110e59061373a565b80601f01602080910402602001604051908101604052809291908181526020018280546111119061373a565b801561115e5780601f106111335761010080835404028352916020019161115e565b820191906000526020600020905b81548152906001019060200180831161114157829003601f168201915b50505050509050600061116f611ebd565b90506000815114156111855781925050506111c8565b6000825111156111ba5780826040516020016111a2929190612f80565b604051602081830303815290604052925050506111c8565b6111c384611ed4565b925050505b919050565b60326111d96008611f7b565b10611219576040517f08c379a000000000000000000000000000000000000000000000000000000000815260040161121090613406565b60405180910390fd5b66038d7ea4c680003414611262576040517f08c379a000000000000000000000000000000000000000000000000000000000815260040161125990613466565b60405180910390fd5b600061126e6008611f7b565b9050600061127b82610840565b9050600061128883610ddd565b9050600061129584610f5d565b905060008383836040516020016112ae93929190612fa4565b6040516020818303038152906040529050600060098585856040516020016112d99493929190612fd5565b604051602081830303815290604052905061130b6040518060600160405280602181526020016140fb60219139611503565b61131481611503565b61133560405180606001604052806021815260200161408960219139611503565b60006113698361134484611f89565b604051602001611355929190613062565b604051602081830303815290604052611f89565b905060008160405160200161137e91906130c9565b60405160208183030381529060405290506113b06040518060600160405280602c815260200161401d602c9139611503565b6113b981611503565b6113da6040518060600160405280602c81526020016140cf602c9139611503565b6113e43389612147565b6113ee8882612165565b6114116040518060600160405280602581526020016140aa6025913989336121d9565b61141b6008612278565b7febb98688741ffa4c7589bf325de30cf7becb63de567842e1ccdb6cb949fdc82c338960405161144c929190613152565b60405180910390a15050505050505050565b6000600560008473ffffffffffffffffffffffffffffffffffffffff1673ffffffffffffffffffffffffffffffffffffffff16815260200190815260200160002060008373ffffffffffffffffffffffffffffffffffffffff1673ffffffffffffffffffffffffffffffffffffffff16815260200190815260200160002060009054906101000a900460ff16905092915050565b60006114fe6008611f7b565b905090565b611599816040516024016115179190613196565b6040516020818303038152906040527f41304fac000000000000000000000000000000000000000000000000000000007bffffffffffffffffffffffffffffffffffffffffffffffffffffffff19166020820180517bffffffffffffffffffffffffffffffffffffffffffffffffffffffff838183161783525050505061228e565b50565b60007f01ffc9a7000000000000000000000000000000000000000000000000000000007bffffffffffffffffffffffffffffffffffffffffffffffffffffffff1916827bffffffffffffffffffffffffffffffffffffffffffffffffffffffff1916149050919050565b60008073ffffffffffffffffffffffffffffffffffffffff166002600084815260200190815260200160002060009054906101000a900473ffffffffffffffffffffffffffffffffffffffff1673ffffffffffffffffffffffffffffffffffffffff1614159050919050565b600033905090565b816004600083815260200190815260200160002060006101000a81548173ffffffffffffffffffffffffffffffffffffffff021916908373ffffffffffffffffffffffffffffffffffffffff160217905550808273ffffffffffffffffffffffffffffffffffffffff166116ed83610bcb565b73ffffffffffffffffffffffffffffffffffffffff167f8c5be1e5ebec7d5bd14f71427d1e84f3dd0314c0f7b2291e5b200ac8c7c3b92560405160405180910390a45050565b600061173e82611606565b61177d576040517f08c379a0000000000000000000000000000000000000000000000000000000008152600401611774906132e6565b60405180910390fd5b600061178883610bcb565b90508073ffffffffffffffffffffffffffffffffffffffff168473ffffffffffffffffffffffffffffffffffffffff1614806117ca57506117c9818561145e565b5b8061180857508373ffffffffffffffffffffffffffffffffffffffff166117f084610643565b73ffffffffffffffffffffffffffffffffffffffff16145b91505092915050565b8273ffffffffffffffffffffffffffffffffffffffff1661183182610bcb565b73ffffffffffffffffffffffffffffffffffffffff1614611887576040517f08c379a000000000000000000000000000000000000000000000000000000000815260040161187e90613246565b60405180910390fd5b600073ffffffffffffffffffffffffffffffffffffffff168273ffffffffffffffffffffffffffffffffffffffff1614156118f7576040517f08c379a00000000000000000000000000000000000000000000000000000000081526004016118ee906132a6565b60405180910390fd5b6119028383836122b7565b61190d60008261167a565b6001600360008573ffffffffffffffffffffffffffffffffffffffff1673ffffffffffffffffffffffffffffffffffffffff168152602001908152602001600020600082825461195d9190613650565b925050819055506001600360008473ffffffffffffffffffffffffffffffffffffffff1673ffffffffffffffffffffffffffffffffffffffff16815260200190815260200160002060008282546119b4919061356f565b92505081905550816002600083815260200190815260200160002060006101000a81548173ffffffffffffffffffffffffffffffffffffffff021916908373ffffffffffffffffffffffffffffffffffffffff160217905550808273ffffffffffffffffffffffffffffffffffffffff168473ffffffffffffffffffffffffffffffffffffffff167fddf252ad1be2c89b69c2b068fc378daa952ba7f163c4a11628f55a4df523b3ef60405160405180910390a4611a738383836122bc565b505050565b60606000821415611ac0576040518060400160405280600181526020017f30000000000000000000000000000000000000000000000000000000000000008152509050611c20565b600082905060005b60008214611af2578080611adb9061379d565b915050600a82611aeb91906135c5565b9150611ac8565b60008167ffffffffffffffff811115611b34577f4e487b7100000000000000000000000000000000000000000000000000000000600052604160045260246000fd5b6040519080825280601f01601f191660200182016040528015611b665781602001600182028036833780820191505090505b5090505b60008514611c1957600182611b7f9190613650565b9150600a85611b8e91906137e6565b6030611b9a919061356f565b60f81b818381518110611bd6577f4e487b7100000000000000000000000000000000000000000000000000000000600052603260045260246000fd5b60200101907effffffffffffffffffffffffffffffffffffffffffffffffffffffffffffff1916908160001a905350600a85611c1291906135c5565b9450611b6a565b8093505050505b919050565b600081604051602001611c389190612f69565b6040516020818303038152906040528051906020012060001c9050919050565b611cf08282604051602401611c6e9291906131b8565b6040516020818303038152906040527f9710a9d0000000000000000000000000000000000000000000000000000000007bffffffffffffffffffffffffffffffffffffffffffffffffffffffff19166020820180517bffffffffffffffffffffffffffffffffffffffffffffffffffffffff838183161783525050505061228e565b5050565b8173ffffffffffffffffffffffffffffffffffffffff168373ffffffffffffffffffffffffffffffffffffffff161415611d63576040517f08c379a0000000000000000000000000000000000000000000000000000000008152600401611d5a906132c6565b60405180910390fd5b80600560008573ffffffffffffffffffffffffffffffffffffffff1673ffffffffffffffffffffffffffffffffffffffff16815260200190815260200160002060008473ffffffffffffffffffffffffffffffffffffffff1673ffffffffffffffffffffffffffffffffffffffff16815260200190815260200160002060006101000a81548160ff0219169083151502179055508173ffffffffffffffffffffffffffffffffffffffff168373ffffffffffffffffffffffffffffffffffffffff167f17307eab39ab6107e8899845ad3d59bd9653f200f220920489ca2b5937696c3183604051611e54919061317b565b60405180910390a3505050565b611e6c848484611811565b611e78848484846122c1565b611eb7576040517f08c379a0000000000000000000000000000000000000000000000000000000008152600401611eae90613226565b60405180910390fd5b50505050565b606060405180602001604052806000815250905090565b6060611edf82611606565b611f1e576040517f08c379a0000000000000000000000000000000000000000000000000000000008152600401611f15906133e6565b60405180910390fd5b6000611f28611ebd565b90506000815111611f485760405180602001604052806000815250611f73565b80611f5284611a78565b604051602001611f63929190612f80565b6040516020818303038152906040525b915050919050565b600081600001549050919050565b60606000825190506000811415611fb25760405180602001604052806000815250915050612142565b60006003600283611fc3919061356f565b611fcd91906135c5565b6004611fd991906135f6565b90506000602082611fea919061356f565b67ffffffffffffffff811115612029577f4e487b7100000000000000000000000000000000000000000000000000000000600052604160045260246000fd5b6040519080825280601f01601f19166020018201604052801561205b5781602001600182028036833780820191505090505b5090506000604051806060016040528060408152602001614049604091399050600181016020830160005b868110156120ff5760038101905062ffffff818a015116603f8160121c168401518060081b905060ff603f83600c1c1686015116810190508060081b905060ff603f8360061c1686015116810190508060081b905060ff603f831686015116810190508060e01b90508084526004840193505050612086565b506003860660018114612119576002811461212957612134565b613d3d60f01b6002830352612134565b603d60f81b60018303525b508484525050819450505050505b919050565b612161828260405180602001604052806000815250612458565b5050565b61216e82611606565b6121ad576040517f08c379a00000000000000000000000000000000000000000000000000000000081526004016121a490613366565b60405180910390fd5b806006600084815260200190815260200160002090805190602001906121d49291906126b0565b505050565b6122738383836040516024016121f1939291906131e8565b6040516020818303038152906040527fe3849f79000000000000000000000000000000000000000000000000000000007bffffffffffffffffffffffffffffffffffffffffffffffffffffffff19166020820180517bffffffffffffffffffffffffffffffffffffffffffffffffffffffff838183161783525050505061228e565b505050565b6001816000016000828254019250508190555050565b60008151905060006a636f6e736f6c652e6c6f679050602083016000808483855afa5050505050565b505050565b505050565b60006122e28473ffffffffffffffffffffffffffffffffffffffff166124b3565b1561244b578373ffffffffffffffffffffffffffffffffffffffff1663150b7a0261230b611672565b8786866040518563ffffffff1660e01b815260040161232d9493929190613106565b602060405180830381600087803b15801561234757600080fd5b505af192505050801561237857506040513d601f19601f8201168201806040525081019061237591906129f4565b60015b6123fb573d80600081146123a8576040519150601f19603f3d011682016040523d82523d6000602084013e6123ad565b606091505b506000815114156123f3576040517f08c379a00000000000000000000000000000000000000000000000000000000081526004016123ea90613226565b60405180910390fd5b805181602001fd5b63150b7a0260e01b7bffffffffffffffffffffffffffffffffffffffffffffffffffffffff1916817bffffffffffffffffffffffffffffffffffffffffffffffffffffffff191614915050612450565b600190505b949350505050565b61246283836124d6565b61246f60008484846122c1565b6124ae576040517f08c379a00000000000000000000000000000000000000000000000000000000081526004016124a590613226565b60405180910390fd5b505050565b6000808273ffffffffffffffffffffffffffffffffffffffff163b119050919050565b600073ffffffffffffffffffffffffffffffffffffffff168273ffffffffffffffffffffffffffffffffffffffff161415612546576040517f08c379a000000000000000000000000000000000000000000000000000000000815260040161253d90613386565b60405180910390fd5b61254f81611606565b1561258f576040517f08c379a000000000000000000000000000000000000000000000000000000000815260040161258690613266565b60405180910390fd5b61259b600083836122b7565b6001600360008473ffffffffffffffffffffffffffffffffffffffff1673ffffffffffffffffffffffffffffffffffffffff16815260200190815260200160002060008282546125eb919061356f565b92505081905550816002600083815260200190815260200160002060006101000a81548173ffffffffffffffffffffffffffffffffffffffff021916908373ffffffffffffffffffffffffffffffffffffffff160217905550808273ffffffffffffffffffffffffffffffffffffffff16600073ffffffffffffffffffffffffffffffffffffffff167fddf252ad1be2c89b69c2b068fc378daa952ba7f163c4a11628f55a4df523b3ef60405160405180910390a46126ac600083836122bc565b5050565b8280546126bc9061373a565b90600052602060002090601f0160209004810192826126de5760008555612725565b82601f106126f757805160ff1916838001178555612725565b82800160010185558215612725579182015b82811115612724578251825591602001919060010190612709565b5b5090506127329190612736565b5090565b5b8082111561274f576000816000905550600101612737565b5090565b6000612766612761846134e6565b6134c1565b90508281526020810184848401111561277e57600080fd5b6127898482856136f8565b509392505050565b6000813590506127a081613fc0565b92915050565b6000813590506127b581613fd7565b92915050565b6000813590506127ca81613fee565b92915050565b6000815190506127df81613fee565b92915050565b600082601f8301126127f657600080fd5b8135612806848260208601612753565b91505092915050565b60008135905061281e81614005565b92915050565b60006020828403121561283657600080fd5b600061284484828501612791565b91505092915050565b6000806040838503121561286057600080fd5b600061286e85828601612791565b925050602061287f85828601612791565b9150509250929050565b60008060006060848603121561289e57600080fd5b60006128ac86828701612791565b93505060206128bd86828701612791565b92505060406128ce8682870161280f565b9150509250925092565b600080600080608085870312156128ee57600080fd5b60006128fc87828801612791565b945050602061290d87828801612791565b935050604061291e8782880161280f565b925050606085013567ffffffffffffffff81111561293b57600080fd5b612947878288016127e5565b91505092959194509250565b6000806040838503121561296657600080fd5b600061297485828601612791565b9250506020612985858286016127a6565b9150509250929050565b600080604083850312156129a257600080fd5b60006129b085828601612791565b92505060206129c18582860161280f565b9150509250929050565b6000602082840312156129dd57600080fd5b60006129eb848285016127bb565b91505092915050565b600060208284031215612a0657600080fd5b6000612a14848285016127d0565b91505092915050565b600060208284031215612a2f57600080fd5b6000612a3d8482850161280f565b91505092915050565b612a4f81613684565b82525050565b612a5e81613696565b82525050565b6000612a6f8261352c565b612a798185613542565b9350612a89818560208601613707565b612a92816138d3565b840191505092915050565b6000612aa882613537565b612ab28185613553565b9350612ac2818560208601613707565b612acb816138d3565b840191505092915050565b6000612ae182613537565b612aeb8185613564565b9350612afb818560208601613707565b80840191505092915050565b60008154612b148161373a565b612b1e8186613564565b94506001821660008114612b395760018114612b4a57612b7d565b60ff19831686528186019350612b7d565b612b5385613517565b60005b83811015612b7557815481890152600182019150602081019050612b56565b838801955050505b50505092915050565b6000612b93603283613553565b9150612b9e826138e4565b604082019050919050565b6000612bb6602583613553565b9150612bc182613933565b604082019050919050565b6000612bd9601c83613553565b9150612be482613982565b602082019050919050565b6000612bfc600a83613564565b9150612c07826139ab565b600a82019050919050565b6000612c1f601183613553565b9150612c2a826139d4565b602082019050919050565b6000612c42606283613564565b9150612c4d826139fd565b606282019050919050565b6000612c65602483613553565b9150612c7082613a98565b604082019050919050565b6000612c88601983613553565b9150612c9382613ae7565b602082019050919050565b6000612cab600b83613564565b9150612cb682613b10565b600b82019050919050565b6000612cce602c83613553565b9150612cd982613b39565b604082019050919050565b6000612cf1600d83613564565b9150612cfc82613b88565b600d82019050919050565b6000612d14603883613553565b9150612d1f82613bb1565b604082019050919050565b6000612d37602a83613553565b9150612d4282613c00565b604082019050919050565b6000612d5a602983613553565b9150612d6582613c4f565b604082019050919050565b6000612d7d602e83613553565b9150612d8882613c9e565b604082019050919050565b6000612da0600283613564565b9150612dab82613ced565b600282019050919050565b6000612dc3602083613553565b9150612dce82613d16565b602082019050919050565b6000612de6603183613553565b9150612df182613d3f565b604082019050919050565b6000612e09602c83613553565b9150612e1482613d8e565b604082019050919050565b6000612e2c602f83613553565b9150612e3782613ddd565b604082019050919050565b6000612e4f600a83613564565b9150612e5a82613e2c565b600a82019050919050565b6000612e72600b83613553565b9150612e7d82613e55565b602082019050919050565b6000612e95602183613553565b9150612ea082613e7e565b604082019050919050565b6000612eb8600a83613564565b9150612ec382613ecd565b600a82019050919050565b6000612edb601d83613564565b9150612ee682613ef6565b601d82019050919050565b6000612efe603183613553565b9150612f0982613f1f565b604082019050919050565b6000612f21600e83613553565b9150612f2c82613f6e565b602082019050919050565b6000612f44601183613553565b9150612f4f82613f97565b602082019050919050565b612f63816136ee565b82525050565b6000612f758284612ad6565b915081905092915050565b6000612f8c8285612ad6565b9150612f988284612ad6565b91508190509392505050565b6000612fb08286612ad6565b9150612fbc8285612ad6565b9150612fc88284612ad6565b9150819050949350505050565b6000612fe18287612b07565b9150612fed8286612ad6565b9150612ff98285612ad6565b91506130058284612ad6565b915061301082612ce4565b915081905095945050505050565b600061302982612bef565b91506130358284612ad6565b915081905092915050565b600061304b82612c9e565b91506130578284612ad6565b915081905092915050565b600061306d82612e42565b91506130798285612ad6565b915061308482612c35565b91506130908284612ad6565b915061309b82612d93565b91508190509392505050565b60006130b282612eab565b91506130be8284612ad6565b915081905092915050565b60006130d482612ece565b91506130e08284612ad6565b915081905092915050565b60006020820190506131006000830184612a46565b92915050565b600060808201905061311b6000830187612a46565b6131286020830186612a46565b6131356040830185612f5a565b81810360608301526131478184612a64565b905095945050505050565b60006040820190506131676000830185612a46565b6131746020830184612f5a565b9392505050565b60006020820190506131906000830184612a55565b92915050565b600060208201905081810360008301526131b08184612a9d565b905092915050565b600060408201905081810360008301526131d28185612a9d565b90506131e16020830184612f5a565b9392505050565b600060608201905081810360008301526132028186612a9d565b90506132116020830185612f5a565b61321e6040830184612a46565b949350505050565b6000602082019050818103600083015261323f81612b86565b9050919050565b6000602082019050818103600083015261325f81612ba9565b9050919050565b6000602082019050818103600083015261327f81612bcc565b9050919050565b6000602082019050818103600083015261329f81612c12565b9050919050565b600060208201905081810360008301526132bf81612c58565b9050919050565b600060208201905081810360008301526132df81612c7b565b9050919050565b600060208201905081810360008301526132ff81612cc1565b9050919050565b6000602082019050818103600083015261331f81612d07565b9050919050565b6000602082019050818103600083015261333f81612d2a565b9050919050565b6000602082019050818103600083015261335f81612d4d565b9050919050565b6000602082019050818103600083015261337f81612d70565b9050919050565b6000602082019050818103600083015261339f81612db6565b9050919050565b600060208201905081810360008301526133bf81612dd9565b9050919050565b600060208201905081810360008301526133df81612dfc565b9050919050565b600060208201905081810360008301526133ff81612e1f565b9050919050565b6000602082019050818103600083015261341f81612e65565b9050919050565b6000602082019050818103600083015261343f81612e88565b9050919050565b6000602082019050818103600083015261345f81612ef1565b9050919050565b6000602082019050818103600083015261347f81612f14565b9050919050565b6000602082019050818103600083015261349f81612f37565b9050919050565b60006020820190506134bb6000830184612f5a565b92915050565b60006134cb6134dc565b90506134d7828261376c565b919050565b6000604051905090565b600067ffffffffffffffff821115613501576135006138a4565b5b61350a826138d3565b9050602081019050919050565b60008190508160005260206000209050919050565b600081519050919050565b600081519050919050565b600082825260208201905092915050565b600082825260208201905092915050565b600081905092915050565b600061357a826136ee565b9150613585836136ee565b9250827fffffffffffffffffffffffffffffffffffffffffffffffffffffffffffffffff038211156135ba576135b9613817565b5b828201905092915050565b60006135d0826136ee565b91506135db836136ee565b9250826135eb576135ea613846565b5b828204905092915050565b6000613601826136ee565b915061360c836136ee565b9250817fffffffffffffffffffffffffffffffffffffffffffffffffffffffffffffffff048311821515161561364557613644613817565b5b828202905092915050565b600061365b826136ee565b9150613666836136ee565b92508282101561367957613678613817565b5b828203905092915050565b600061368f826136ce565b9050919050565b60008115159050919050565b60007fffffffff0000000000000000000000000000000000000000000000000000000082169050919050565b600073ffffffffffffffffffffffffffffffffffffffff82169050919050565b6000819050919050565b82818337600083830152505050565b60005b8381101561372557808201518184015260208101905061370a565b83811115613734576000848401525b50505050565b6000600282049050600182168061375257607f821691505b6020821081141561376657613765613875565b5b50919050565b613775826138d3565b810181811067ffffffffffffffff82111715613794576137936138a4565b5b80604052505050565b60006137a8826136ee565b91507fffffffffffffffffffffffffffffffffffffffffffffffffffffffffffffffff8214156137db576137da613817565b5b600182019050919050565b60006137f1826136ee565b91506137fc836136ee565b92508261380c5761380b613846565b5b828206905092915050565b7f4e487b7100000000000000000000000000000000000000000000000000000000600052601160045260246000fd5b7f4e487b7100000000000000000000000000000000000000000000000000000000600052601260045260246000fd5b7f4e487b7100000000000000000000000000000000000000000000000000000000600052602260045260246000fd5b7f4e487b7100000000000000000000000000000000000000000000000000000000600052604160045260246000fd5b6000601f19601f8301169050919050565b7f4552433732313a207472616e7366657220746f206e6f6e20455243373231526560008201527f63656976657220696d706c656d656e7465720000000000000000000000000000602082015250565b7f4552433732313a207472616e736665722066726f6d20696e636f72726563742060008201527f6f776e6572000000000000000000000000000000000000000000000000000000602082015250565b7f4552433732313a20746f6b656e20616c7265616479206d696e74656400000000600082015250565b7f54484952445f574f524400000000000000000000000000000000000000000000600082015250565b7f6f776e6572206973206f6e6c79206f6e65000000000000000000000000000000600082015250565b7f222c20226465736372697074696f6e223a20224120686967686c79206163636c60008201527f61696d6564636f6c6c656374696f6e206f6620737175617265732e222c20226960208201527f6d616765223a2022646174613a696d6167652f7376672b786d6c3b626173653660408201527f342c000000000000000000000000000000000000000000000000000000000000606082015250565b7f4552433732313a207472616e7366657220746f20746865207a65726f2061646460008201527f7265737300000000000000000000000000000000000000000000000000000000602082015250565b7f4552433732313a20617070726f766520746f2063616c6c657200000000000000600082015250565b7f5345434f4e445f574f5244000000000000000000000000000000000000000000600082015250565b7f4552433732313a206f70657261746f7220717565727920666f72206e6f6e657860008201527f697374656e7420746f6b656e0000000000000000000000000000000000000000602082015250565b7f3c2f746578743e3c2f7376673e00000000000000000000000000000000000000600082015250565b7f4552433732313a20617070726f76652063616c6c6572206973206e6f74206f7760008201527f6e6572206e6f7220617070726f76656420666f7220616c6c0000000000000000602082015250565b7f4552433732313a2062616c616e636520717565727920666f7220746865207a6560008201527f726f206164647265737300000000000000000000000000000000000000000000602082015250565b7f4552433732313a206f776e657220717565727920666f72206e6f6e657869737460008201527f656e7420746f6b656e0000000000000000000000000000000000000000000000602082015250565b7f45524337323155524953746f726167653a2055524920736574206f66206e6f6e60008201527f6578697374656e7420746f6b656e000000000000000000000000000000000000602082015250565b7f227d000000000000000000000000000000000000000000000000000000000000600082015250565b7f4552433732313a206d696e7420746f20746865207a65726f2061646472657373600082015250565b7f45524337323155524953746f726167653a2055524920717565727920666f722060008201527f6e6f6e6578697374656e7420746f6b656e000000000000000000000000000000602082015250565b7f4552433732313a20617070726f76656420717565727920666f72206e6f6e657860008201527f697374656e7420746f6b656e0000000000000000000000000000000000000000602082015250565b7f4552433732314d657461646174613a2055524920717565727920666f72206e6f60008201527f6e6578697374656e7420746f6b656e0000000000000000000000000000000000602082015250565b7f7b226e616d65223a202200000000000000000000000000000000000000000000600082015250565b7f46756c6c206f66204e4654000000000000000000000000000000000000000000600082015250565b7f4552433732313a20617070726f76616c20746f2063757272656e74206f776e6560008201527f7200000000000000000000000000000000000000000000000000000000000000602082015250565b7f46495253545f574f524400000000000000000000000000000000000000000000600082015250565b7f646174613a6170706c69636174696f6e2f6a736f6e3b6261736536342c000000600082015250565b7f4552433732313a207472616e736665722063616c6c6572206973206e6f74206f60008201527f776e6572206e6f7220617070726f766564000000000000000000000000000000602082015250565b7f4e6f7420656e6f75676820457468000000000000000000000000000000000000600082015250565b7f596f7520617265206e6f74206f776e6572000000000000000000000000000000600082015250565b613fc981613684565b8114613fd457600080fd5b50565b613fe081613696565b8114613feb57600080fd5b50565b613ff7816136a2565b811461400257600080fd5b50565b61400e816136ee565b811461401957600080fd5b5056fe0a2d2d2d2d2d2d2d2d2d2d2d2d2d2d2d2d2d20546f6b656e20555249202d2d2d2d2d2d2d2d2d2d2d2d2d2d2d4142434445464748494a4b4c4d4e4f505152535455565758595a6162636465666768696a6b6c6d6e6f707172737475767778797a303132333435363738392b2f2d2d2d2d2d2d2d2d2d2d2d2d2d2d2d2d2d2d2d2d2d2d2d2d2d2d2d2d2d2d2d2d0a416e204e465420772f20496420257320686173206265656e206d696e74656420746f2025732d2d2d2d2d2d2d2d2d2d2d2d2d2d2d2d2d2d2d2d2d2d2d2d2d2d2d2d2d2d2d2d2d2d2d2d2d2d2d2d2d2d2d0a0a2d2d2d2d2d2d2d2d2d2d2d2d2d2d2d2d2d2d2d2d2d2d2d2d2d2d2d2d2d2d2d2da2646970667358221220a59c4cac747a0ef96a9cf08e8e24e7664a3ca35676696350631f28e80cb01d8864736f6c634300080400333c73766720786d6c6e733d27687474703a2f2f7777772e77332e6f72672f323030302f73766727207072657365727665417370656374526174696f3d27784d696e594d696e206d656574272076696577426f783d273020302033353020333530273e3c7374796c653e2e62617365207b2066696c6c3a2077686974653b20666f6e742d66616d696c793a2073657269663b20666f6e742d73697a653a20323470783b207d3c2f7374796c653e3c726563742077696474683d273130302527206865696768743d2731303025272066696c6c3d27626c61636b27202f3e3c7465787420783d273530252720793d273530252720636c6173733d27626173652720646f6d696e616e742d626173656c696e653d276d6964646c652720746578742d616e63686f723d276d6964646c65273e",
  "linkReferences": {},
  "deployedLinkReferences": {}
}